:020000040800F2
:10000000789900206D030008CD46000841030008E0
:10001000C9460008651F000887B4000800000000FA
:100020000000000000000000000000007D8E0008BD
:1000300081030008000000008B02000855900008B2
:100040008703000887030008870300086161000830
:100050008703000887030008493A0008870300085F
:100060008703000887030008870300088703000848
:100070008703000887030008192C00084D2C00088E
:100080008703000887030008870300088703000828
:100090008703000887030008870300088703000818
:1000A0008703000887030008870300088703000808
:1000B00087030008870300088703000887030008F8
:1000C00087030008870300088703000887030008E8
:1000D000870300088D910008D99100088703000864
:1000E00087030008870300088703000887030008C8
:1000F00087030008870300088703000887030008B8
:10010000870300083172000887030008870300088E
:100110008703000887030008870300088703000897
:10012000870300088703000887030008812C000864
:100130008703000887030008870300088703000877
:10014000870300088703000887030008E1540008BC
:100150008703000887030008870300088703000857
:100160008703000887030008870300088703000847
:100170008703000887030008870300088703000837
:1001800087030008870300084B1C012B98BF7047AA
:100190002DE9F003911C9B08B1F80480B1F802909E
:1001A0000A8831F802CC8044814402448444D9F85E
:1001B0000070D8F800601568DCF80040C9F80060ED
:1001C000C8F80070CCF800501460D9F80470D8F862
:1001D00004605568DCF80440C9F80460C8F804708D
:1001E000CCF80450546008315B1ED5D1BDE8F00353
:1001F00070474B1C012B98BF70472DE9F003911CF1
:100200009B08B1F80480B1F802900A8831F802CC5A
:1002100000EB580800EB590900EB520200EB5C0CB4
:10022000D9F80070D8F800601568DCF80040C9F80B
:100230000060C8F80070CCF80050146008315B1EF4
:10024000DFD1BDE8F0037047DFF80CD001F0F0FA21
:1002500000480047555D010878990020EFF31080B1
:1002600072B6704780F3108870473A4A1368012BC2
:1002700004D04FF001031360374A1060374A116011
:1002800037484FF0805101607047EFF3108272B62B
:100290003048016821B34FF0000101602E48016829
:1002A00091B1EFF309811EF0100F08BF21ED108B03
:1002B00021E9F00F4FF000041EF0100F08BF0124D9
:1002C00041F8044D0068016024490968096808C9BB
:1002D000B1E8F00F002B18BFB1EC108B81F3098847
:1002E00082F310884EF0100E002B18BF2EF0100E67
:1002F0004EF0040E704719490860EFF3148222F0A3
:10030000040282F3148814494FF000000860114978
:100310004FF00100086013484FF47F01D0F800202F
:1003200041EA020101600E484FF0805101600E4821
:100330000068006800BF80F3088862B6704700BF9D
:10034000EFF3098000B51AF0A9F95DF804EB4EF05F
:10035000040E70470803002000030020040300205F
:1003600004ED00E020ED00E008ED00E006488047E5
:1003700006480047FEE7FEE7FEE7FEE7FEE7FEE78A
:10038000FEE7FEE7FEE7FEE72591000849020008C8
:100390009FED1A1AF5EE000A40EE010ABDEEE00AE2
:1003A000F5EEC00A10EE100AF1EE10FA38BF401E4A
:1003B00000EE100A1349F7EE001AB8EEC00A30EE4C
:1003C000C00ADFED0F0A20EE200AFCEEC00A10EE94
:1003D000900AC0F3080000EE900A01EB8000F8EEEE
:1003E000600A90ED011A70EE600A90ED000A71EE5D
:1003F000E01A21EE800A00EE810A704783F9223E5E
:10040000000000447CF204089FED3D0A5FEA920C74
:1004100057D000BFD0ED000A90ED011A0B1D60EE21
:10042000A00A083041EE010AF5EEC00AF1EE10FA1A
:10043000C6BFB1EEE01A81ED001A81ED000AD0EDE1
:10044000000A90ED011A191D60EEA00A083041EE75
:10045000010AF5EEC00AF1EE10FAC6BFB1EEE01ADD
:1004600083ED001A83ED000AD0ED000A90ED011A29
:100470000B1D60EEA00A083041EE010AF5EEC00A3D
:10048000F1EE10FAC6BFB1EEE01A81ED001A81ED6F
:10049000000A90ED001AD0ED010A191D21EE011A93
:1004A000083000EEA01AB5EEC01AF1EE10FAC6BF81
:1004B000F1EEC10AC3ED000A83ED000ABCF1010CA4
:1004C000A8D112F0030208BF704700BFD0ED000AA8
:1004D00090ED011A0B4660EEA00A091D083041EEAE
:1004E000010AF5EEC00AF1EE10FAC6BFB1EEE01A4D
:1004F00083ED001A83ED000A521EE7D17047000019
:10050000000000002DE9F04106462DED028B8C46DF
:100510000088736801EB80044508274601EB8500DD
:1005200004EB85025FEA95087DD000BFD1ED003A6B
:10053000D4ED001A91ED012A94ED013A73EEA16A0F
:1005400091ED024A91ED031AD4ED022AD4ED035A3B
:1005500090ED008A90ED017A90ED020A90ED036A29
:1005600092ED005AD2ED014AD2ED027AD2ED030AA1
:10057000C1ED006A72EE036A73EEE13A74EEC71AD7
:10058000C1ED016A74EE226A74EE622A37EEC04A47
:10059000C1ED026A71EE256AC1ED036A72EE436A2B
:1005A00031EE652A38EE051A35EE483A80ED001A2C
:1005B00037EE241A80ED011A30EE271A80ED021A68
:1005C00036EE201A80ED031A30EEC61A93ED000ABB
:1005D000D3ED010A63EE804A26EEA05A66EE805AF9
:1005E00063EEA03A74EE854A75EEE33AC4ED004A34
:1005F00063EE204AC4ED013A61EE803A61EEA00A52
:1006000023EE000A74EEE31A30EE800AC2ED001AFF
:1006100082ED010A93ED020AD3ED030A62EE803AFD
:1006200022EE203A00E024E062EEA01A22EE002A38
:1006300073EE832A1030103172EE611AC4ED022A73
:1006400024EE202AC4ED031A61EE001A61EE200A9E
:1006500024EE000A103332EE611A103430EE800AB4
:1006600082ED021A82ED030A1032B8F101087FF41C
:100670005DAF294602236046726800F0D5FA7268C1
:100680002946BDEC028B3846BDE8F041022300F05C
:10069000CBBA2DE9F34F2DED048B87B00B98008872
:1006A000470801EB870000EB870606EB8705CDE9DD
:1006B0000056DDF82C80A5F1040C0CEB8703CDE986
:1006C00002014FEA5709D8F804800427CDE90497BE
:1006D000D1ED000A96ED000A90ED011A95ED013A70
:1006E00070EE802A70EEC03AD1ED010A96ED010A53
:1006F000041F321F30EE802A70EEC01A31EE230A3A
:10070000D0ED000A32EE415A33EEC11A30EE434AC0
:1007100071EEE04A95ED000A70EEA11A35EE435AEB
:1007200074EE805A72EEE04A70EEA20A71EEC01AC0
:1007300031EE031A74EEC04A30EE800A062708F143
:10074000080A81ED000A90ED010AD5ED010A08F1D1
:10075000100B30EE020A08F1180830EE200A81ED85
:10076000010A80ED004AC0ED015AC6ED004A86ED4F
:10077000015A85ED001AC5ED011ADDF81090083018
:10078000083108350836A9F102095FEA590900F075
:10079000078100BFD1ED000A96ED000AD0ED011AE5
:1007A000D5ED014A30EE802A30EEC05AD1ED010A73
:1007B00096ED010A70EE802A30EEC01A31EE850AFD
:1007C000D5ED000A30EE644A90ED000A31EE403A71
:1007D00030EE011A73EE205A32EE403A30EE020A41
:1007E00031EE601A73EE603A30EE200A32EEE13AF2
:1007F00075EE611A81ED000A90ED010AD5ED010A4E
:1008000033EE643A30EE220A71EEA41A30EE200A7A
:1008100081ED010AD4ED002ADCED004A54ED010A15
:100820001CED010A32EEA47A32EEE49A72EEE42A6A
:1008300052ED018A70EE807A30EEC02A72EEE82A1C
:10084000D2ED000A93ED000A13ED018A30EEC05A92
:1008500072EE886A77EEE82A35EE026A32EEC85AFE
:1008600077EE602A72EEC04A70EEC02A70EE870AF8
:1008700072EEC22A30EE800A38EE682A84ED000A51
:1008800012ED010A53ED010A32EE492A30EE270A31
:1008900030EE200A04ED010A9AED000ADAED010AB1
:1008A00064EE007A25EEA07A65EE805A24EE204AA6
:1008B00037EE877A35EEC44A80ED007A80ED014A42
:1008C00026EEA04A66EE005A66EE200A26EE800A60
:1008D000083034EE654A083130EE800A82ED004A75
:1008E000083C02ED010A9BED000ADBED010ADDF890
:1008F00014E023EE804A63EE205A23EE003A63EEC2
:10090000A03A083A34EE254A0BEB8E0B33EE633AED
:1009100086ED004A0AF1080A86ED013AB1EE643A22
:10092000083663EE003A25EE203A25EE000A64EE22
:10093000A00A33EEC33A30EEC00A8CED003A0CED5B
:10094000010A98ED000AD8ED010A08EB870861EE6C
:10095000803A21EE203A21EE001A61EEA01AACF1A5
:10096000080C33EE833A31EE611A85ED003A62EEFF
:10097000801A85ED011A22EE201A62EEA00A22EEFC
:10098000000A083531EE611A30EE800A83ED001A54
:1009900003ED010A083BB9F101097FF4FBAE00BF8A
:1009A000D1ED000A96ED000A91ED011AD0ED015A41
:1009B00030EE802A70EEC00A96ED010A95ED015ADC
:1009C000042371EE001A71EE404A35EEA00A90ED54
:1009D000001A31EEE54A70EEE50A30EE453A95ED43
:1009E000000A34EE454A30EE855A74EEC12A72EEA2
:1009F000413A71EE240A31EE021A72EE802A73EE49
:100A0000C03A70EEC00A31EE000A81ED000A90EDA6
:100A1000010A95ED011A30EE210A30EE010A81ED4E
:100A2000010A9AED000A9AED011A63EE001A22EE0D
:100A3000812A22EE800A23EE011A71EE821A30EE2C
:100A4000410AC0ED001A80ED010A9BED000A9BED02
:100A5000011A63EE801A24EE012A24EE000A23EE26
:100A6000811A71EE821A30EE410AC6ED001A86ED47
:100A7000010A98ED010A98ED001A60EE801A25EE41
:100A8000012A60EE810A25EE000A32EE211A30EECC
:100A9000C00A85ED001A85ED010A0B984268DDE970
:100AA000030100F0C1F80B980423049942680298EE
:100AB00000F0BAF80B98042304994268019800F0FA
:100AC000B3F80B98049904234268009807B0BDEC72
:100AD000048B02B0BDE8F04F00F0A6B82DE9F0415C
:100AE0000488984617460D460646012A20D1281D3F
:100AF000F4B1A0F1080114F0010F06D091ED020A43
:100B0000B1EE400A81ED020A08315FEA540C0FD0C1
:100B100091ED020AB1EE400A81ED020A91ED040A5C
:100B2000B1EE400A81ED040A1031BCF1010CEFD1A5
:100B3000B4F5807F1BD008DC102C13D0202C16D0ED
:100B4000402C19D0802C0DD01CE0B4F5007F13D0C0
:100B5000B4F5806F06D0B4F5006F08D0B4F5805FAF
:100B60000AD00FE029463046FFF7CCFC0AE02946C0
:100B70003046FFF78EFD05E02146012328467268C6
:100B800000F052F8B8F1000F04D0B1892846B268DD
:100B9000FFF7FAFA012F18BFBDE8F08100EE104A06
:100BA000B7EE001A002CF8EE400A81EE200A08BFCA
:100BB000BDE8F081A5F1080014F0010F0ED0D0EDD2
:100BC000020A60EE800AC0ED020AD0ED030AF1EEDF
:100BD000600A60EE800AC0ED030A0830610808BFB1
:100BE000BDE8F081D0ED020A60EE800AC0ED020A95
:100BF000D0ED030AF1EE600A60EE800AC0ED030A50
:100C0000D0ED040A60EE800AC0ED040AD0ED050ABA
:100C1000F1EE600A60EE800AC0ED050A1030491E50
:100C2000E0D1BDE8F08100002DE9FF4F2DED108BE4
:100C300082B09FEDFEFA0B461C46DB084FF0000C1D
:100C40000CEB030505EB030808EB030909EB0306AE
:100C500006EB030A00EBCC0700EBC60697ED001A83
:100C6000D6ED000A0AEB030B00EBC50500EBCA0A40
:100C700031EE200A71EE601A95ED002ADAED000AD5
:100C80000BEB030E00EBC80832EE201A00EBCB0B87
:100C900032EE602AD8ED002ADBED000A00EBC9092C
:100CA00000EBCE0E99ED003A9EED004A72EEA03AAE
:100CB00072EEE02A73EE040A33EE443A70EE636A91
:100CC00070EE233A31EE600A71EE200A33EEA01A7C
:100CD00073EEE00A87ED001AC6ED000A97ED011ADF
:100CE000D6ED010AD5ED013A98ED014A31EE206AC0
:100CF00071EE600A9AED011A99ED015A73EE814A7C
:100D000073EEC13A9BED011A34EE017A34EE411ACA
:100D10009EED014A75EE045A35EE444A36EE475AC6
:100D200036EE076A34EEE57A74EEA54A76EE245A7A
:100D300076EE644AC7ED015AC6ED014A76EE874A5F
:100D4000C8ED004A76EEC74ACBED004A75EE404A40
:100D500035EE000AC8ED014A8BED010A32EE430A76
:100D600032EE032A20EE0F0A62EE0F4A33EEC42A57
:100D7000A4448C4522EE0F3A33EE842A30EEC34A67
:100D800062EE0F3A30EE833A31EEC02A31EE800A3D
:100D900071EE630A31EE231A72EEE41A72EEA42A9F
:100DA00070EE013A30EE410AC5ED003A8EED000AD0
:100DB00032EE200A8AED000A32EE600A89ED000A5E
:100DC00033EE620A85ED010A33EE220A8EED010A46
:100DD00034EE610A8AED010A34EE210A89ED010A36
:100DE000FFF42EAF082B3FBF02B0BDEC108B04B058
:100DF000BDE8F08F4FF0000CCDF804C04FF0010CAF
:100E0000CDF800C0DDF804C0159DAC444FEA8C0558
:100E100005EB0C07CDF804C007EB0C094FEA4C08B2
:100E200008EB0C0609EB0C0A02EBCC0C02EBC80831
:100E300002EBC60602EBC50502EBC70702EBC909C8
:100E400002EBCA0A9CED00DA9CED018AD8ED00CADB
:100E500096ED00CAD5ED00BA97ED00BAD9ED00AA1B
:100E6000DAED008AD8ED017A96ED01AA95ED017AC6
:100E7000D7ED016A99ED016ADAED019ADDF800C05B
:100E80000CEB0307FD1805EB030A0AEB030808EB5C
:100E9000030606EB030B00EBCC0900EBC808D9ED09
:100EA000000A98ED000A00EBC70700EBC606D7ED75
:100EB000001A96ED001A70EE803A0BEB030E70EEFE
:100EC000C00A31EE810A00EBC50500EBCB0B31EE19
:100ED000C11AD5ED001A9BED002A00EBCA0A00EBFF
:100EE000CE0E31EE824A71EEC21A9AED002ADEED84
:100EF000002A32EE223A32EE622A73EEC42A73EEF0
:100F0000843A30EE435A30EE030A33EE803A73EE01
:100F1000C0DA89ED003A99ED010A98ED013AD7ED72
:100F2000013A95ED014A70EE03EA30EE433A96ED50
:100F3000010A9AED01EADEED014A33EE809A73EE82
:100F4000C03A9BED010A74EE005A34EE404A3EEE80
:100F5000240A7EEE644A3EEEE5EA7EEEA55A79EE7C
:100F600040EA39EE009A32EEAE0A72EEEE2A75EEE3
:100F700089EA35EEC99A7EEE455AC9ED01EA3EEEA0
:100F8000055A2BEEADEA67EE09EA2BEE899A67EE79
:100F90002DDA3EEE2EEA39EE6D9A88ED00EA67EE24
:100FA000A5DA88ED019A2CEE809A6CEEA55A27EE10
:100FB000800A39EE2D9A35EEC00A85ED009A66EE6C
:100FC000055A85ED010A2AEEA20A2AEE855A66EE36
:100FD000222A30EE250A8BED000A35EE620A73EE06
:100FE000A42A8BED010A31EE420A31EE021A33EEE9
:100FF000E42A62EE8F3A20EE0F0A21EE0F1A22EE5B
:101000000F2A70EEC02A30EE800A71EEC10A71EE2E
:10101000811A33EE421A33EE022A34EE633A34EE8A
:10102000234A70EE043A30EE444A01E0F304353FBF
:1010300072EE834A72EEC32A32EE613A32EE210A30
:1010400071EE601A71EE200A2DEE232A28EE031AA3
:101050002DEE033A68EE233AA44432EE011A28EE4C
:10106000842A8C4587ED001A33EE631A29EE843A00
:1010700087ED011A29EE801A28EE800A32EE011A55
:1010800030EE430A26EEA42A8EED001A8EED010AF8
:101090002BEE240A26EEA11A6BEE211A30EE010A7D
:1010A0002CEE221A86ED000A31EEC20A6AEE221AEE
:1010B00086ED010A2AEE200A6CEE200A31EE000AC3
:1010C0008AED000A30EEE10A8AED010AFFF4D8AE9B
:1010D000DDF800C00CF1010CCDF800C063453FF60F
:1010E00091AEDDF854C04FF6FF7404EACC0CCDF895
:1010F00054C0072B3FF6A0AD02B0BDEC108B04B07E
:10110000BDE8F08F2DE9F05F0546002092469B4632
:1011100088460646814640241BE02846414647460D
:10112000224600F096FA53465A46C01A914110D30F
:1011300011461846224600F07DFA2D1A67EB010889
:101140004F4622460120002100F074FA17EB0009F7
:101150004E41201EA4F10104DFDC484631462A46F8
:101160004346BDE8F09F40EA01039B0703D009E036
:1011700008C9121F08C0042AFAD203E011F8013B83
:1011800000F8013B521EF9D27047D2B201E000F8DC
:10119000012B491EFBD270470022F6E710B513461B
:1011A0000A4604461946FFF7F0FF204610BD10B569
:1011B000044604E00B7800F8013B03B1491C521EC1
:1011C000F8D2204610BD421C10F8011B0029FBD1AB
:1011D000801A704710B5002200E0521C835C8C5CC2
:1011E000A34201D1002BF8D1D8B2E1B2401A10BD10
:1011F00030B505460020034600E05B1C934205D253
:10120000EC5CC85C201A01D1002CF6D130BD70B561
:1012100006460AF03BF9046805460A2200213046DA
:1012200000F039FA2C6070BD2DE9FE4F804681EA4E
:101230000300C00F0C46009021F0004123F0004550
:10124000B8EB0200A94105D24046214690461C4613
:101250000B46024623F00040104347D0270DC7F34A
:101260000A00C3F30A510290401A019040286BDA39
:10127000C3F3130040F4801B0098924620B1002372
:10128000D2EB030A63EB0B0B01985946C0F1400205
:10129000504600F0CFF906460D4650465946019A91
:1012A00000F0E7F910EB08006141002487EA1152D1
:1012B00084EAE7731A4340D0009A62B3019A012A84
:1012C0004FEA075215DC001B61EB02014FF00042B0
:1012D00002EA0752CDE90042001C41F58011324676
:1012E0002B4600F056FA03B0BDE8F08F4046214689
:1012F000F9E7001B61EB0201001C41F580130018A7
:101300005B412018A2F5001747EB030140EAD570B6
:10131000B6196D4111E06D084FEA360645EAC07511
:101320004FEA0752001B61EB0201001C41F58011DE
:1013300049084FEA30000019514132462B4603B0AC
:10134000BDE8F04F00F016BA0098012240000023DB
:10135000D0EB020263EBE073009821464FEAE074A1
:10136000B8EB000061EB0401E9E783F000435BE7C1
:1013700081F0004158E72DE9FE4F81EA030404F0B3
:10138000004421F0004100944FF0000B23F0004393
:1013900050EA01045ED052EA03045BD0C3F30A545E
:1013A000C1F30A552C44A4F2F3340194A0FB025477
:1013B000C1F3130141F48011C3F3130343F4801309
:1013C00001FB024400FB034E840A970A44EA81545D
:1013D00047EA8357A4FB076802958D0A05FB07853A
:1013E0004FEA932C04FB0C542705029D4FEA065844
:1013F00047EA1637B5EB08056EEB070C870E920E21
:1014000047EA811742EA8312A7FB0201B6EB0B0100
:1014100064EB00042B0D43EA0C335E1844EB1C50C4
:10142000DA465146E7FB0201C5F313044FEA0B33DA
:1014300043EA14534FEA0432019C43EA0603A4F141
:101440000C040294009CCDE900B400F0A2F903B0B2
:10145000BDE8F08F00200146F9E72DE9F04D81EA63
:10146000030404F0004B21F0004514464FF0000A3D
:1014700023F0004150EA050220D054EA01021DD0B9
:10148000C5F30A570246C5F31303C1F31300C1F3B2
:101490000A5640F4801543F48013A7EB0608101B8E
:1014A000D64608F2FD3873EB050002D308F10108B7
:1014B00001E092185B41B8F1000F03DA0020014609
:1014C000BDE8F08D00204FF48011064684460EE002
:1014D000171B73EB050705D3121B63EB05030643CC
:1014E0004CEA010C49084FEA300092185B4150EA7F
:1014F0000107EDD152EA030012D082EA040083EA28
:101500000501084305D0101BAB4106D20122002380
:1015100006E000224FF0004302E06FF0010253109A
:101520001AEB06004CEB085110EB0A0041EB0B01E3
:10153000BDE8F04D00F01EB90EB5C10F80EAE070B5
:101540000844CA07002140F233438DE80E000A46E2
:101550000B4600F01EF903B000BD0EB540F233415A
:1015600002910021CDE900110A460B4600F011F965
:1015700003B000BDC1F30A5210B5C1F3130140F22C
:10158000FF3341F480119A4201DA002010BD40F28D
:1015900033439A42A2F2334203DC524200F059F83C
:1015A00010BD904010BD00F0004230F000400AD065
:1015B000C10D01F56071C0F3160042EA0151C20885
:1015C00040071143704700200146704730B5041EA4
:1015D00071F1000404DB4FF00044404264EB010170
:1015E000141E73F1000405DB1C464FF00043524209
:1015F00063EB04038B4208BF824230BD01F000431D
:1016000030B421F0004150EA010206D00A0DA2F5E3
:101610006072C1F31301002A02DC30BC0020704765
:10162000440F44EAC104C100E01830BC00EBC250D2
:1016300000F069B8202A04DB203A00FA02F1002009
:1016400070479140C2F1200320FA03F31943904000
:101650007047202A04DB203A21FA02F0002170476B
:1016600021FA02F3D040C2F120029140084319460A
:101670007047202A06DBCB17203A41FA02F043EAF2
:10168000E07306E041FA02F3D040C2F1200291403B
:101690000843194670472DE9F04791460F468046AA
:1016A0000446002614F8015B2DB100F0D3F8006861
:1016B000405DC007F6D12B2D02D02D2D18D0641E11
:1016C0004A463946204600F0C9F827B13968A14298
:1016D00001D1C7F8008071054FF002040BD54042DC
:1016E000002803DD09F0D2FE0460A007BDE8F08702
:1016F00046F48066E4E70028F8DA09F0C7FE0460E3
:101700006FF00040F2E70029A8BF7047401C490075
:1017100008BF20F00100704710B4B0FA80FC00FA56
:101720000CF050EA010404BF10BC704749B1CCF181
:10173000200421FA04F411FA0CF118BF012121430D
:101740000843A3EB0C01CB1D4FEA00614FEA1020C8
:1017500042BF002010BC704700EBC350104400296A
:10176000A4BF10BC7047401C490008BF20F0010016
:1017700010BC704710B5141E73F1000408DA401C49
:1017800041F1000192185B411A4301D120F00100A0
:1017900010BD2DE9F04D92469B4611B1B1FA81F290
:1017A00002E0B0FA80F220329046FFF743FF044691
:1017B0000F4640EA0A0041EA0B0153465A460843E5
:1017C00013D0114653EA010019D0C8F14002504627
:1017D000FFF73FFF05460E46504659464246FFF783
:1017E00029FF084305D0012004E020463946BDE822
:1017F000F08D0020054346EAE0762C4337430A98F3
:101800006305E40AA0EB08000022FD0A44EA4754FD
:101810000A3002D500200146E9E7010510196941A7
:10182000DDE9084500196941BDE8F04DA2E7000077
:10183000064C074D06E0E06840F0010394E807001D
:1018400098471034AC42F6D3FEF702FD180605089F
:10185000380605080048704744FB04082DE9F05F8E
:1018600082460078002715468B460AF10104B946E6
:10187000302801D09DB113E014F8010B012778281E
:1018800003D0582801D045B10AE00DB1102D07D181
:101890000027102514F8010B02E0082500E00A25B6
:1018A0000026B0460EE005FB080005FB06F1012707
:1018B00001EB10461FFA80F8B6F5803F00D3B94619
:1018C00014F8010B294600F018F80028EBDABBF1F8
:1018D000000F05D00FB1641E00E05446CBF8004065
:1018E000B9F1000F06D009F0D1FD02210160C81E38
:1018F000BDE8F09F48EA0640FAE73A2800D23038BF
:1019000020F02002412A01D3A2F13700884201D3FE
:101910004FF0FF30704770B58C1810F8015B15F070
:10192000070301D110F8013B2A1106D110F8012B51
:1019300003E010F8016B01F8016B5B1EF9D12B0776
:1019400005D40023521E0DD401F8013BFAE710F82C
:10195000013BCB1A921C03E013F8015B01F8015B19
:10196000521EF9D5A142D8D3002070BD70B50446EF
:101970000D461148844205D01048844202D01048D8
:10198000844200D104E040F28B110E480AF070FF4F
:101990000DB1012D00D104E04FF4C67109480AF0E1
:1019A00067FF25B1A06840F00100A06003E0A068D7
:1019B00020F00100A06070BD002001400021014026
:1019C00000220140C0FE040870B5044600252068CE
:1019D00018B32068012820D0206802281DD0206874
:1019E00005281AD02068062817D02068072814D0A8
:1019F0002068092811D0206811280ED020681228EC
:101A00000BD02068152808D02068162805D020683B
:101A1000172802D02068192800D104E04FF4A971DA
:101A20003F480AF025FF606858B16068B0F5803F14
:101A300007D06068B0F5003F03D06068B0F5403F64
:101A400000D104E040F2531135480AF011FFA068BC
:101A500058B1A068B0F5804F07D0A068B0F5004F2E
:101A600003D0A068B0F5404F00D104E04FF4AA7154
:101A70002B480AF0FDFEE068D8B3E068B0F5807F3F
:101A800037D0E068B0F5007F33D0E068B0F5407F34
:101A90002FD0E068B0F5806F2BD0E068B0F5A06F74
:101AA00027D0E068B0F5C06F23D0E068B0F5E06FF4
:101AB0001FD0E068B0F5006F1BD0E068B0F5106F84
:101AC00017D0E068B0F5206F13D0E068B0F5306F44
:101AD0000FD0E068B0F5406F0BD0E068B0F5506F04
:101AE00007D0E068B0F5606F03D0E068B0F5706FC4
:101AF00000D104E040F2551109480AF0B9FE094846
:101B0000056809480540D4E900010843A168084375
:101B1000E168084305430548C0F8045370BD000060
:101B2000C0FE040804230140E030FCFF0020014017
:101B300010B504460848844205D00848844202D0C3
:101B40000748844200D104E040F2D53105480AF04C
:101B50008FFEE06C80B210BD0020014000210140EA
:101B600000220140C0FE040870B505460C46002660
:101B70001448854205D01448854202D01348854256
:101B800000D104E040F2566111480AF071FE012CC8
:101B900009D0022C07D0042C05D0082C03D0102C1F
:101BA00001D0202C00D104E040F2576108480AF02F
:101BB0005FFE2868204008B1012600E0002630467C
:101BC00070BD0000002001400021014000220140C2
:101BD000C0FE04082DE9F04105460C46002600270A
:101BE0006148854205D06148854202D060488542FF
:101BF00000D103E0E9215F480AF03AFE206858B1BD
:101C00002068B0F1807F07D02068B0F1007F03D05A
:101C10002068B0F1407F00D103E0EA2155480AF086
:101C200027FE207910B12079012800D103E0EB21B3
:101C300050480AF01DFE607910B16079012800D18A
:101C400003E0EC214B480AF013FEA06858B1A068ED
:101C5000B0F1805F07D0A068B0F1005F03D0A0684A
:101C6000B0F1405F00D103E0ED2142480AF000FEF0
:101C7000E068D8B3E068B0F1807F37D0E068B0F1B9
:101C8000007F33D0E068B0F1407F2FD0E068B0F142
:101C9000806F2BD0E068B0F1A06F27D0E068B0F182
:101CA000C06F23D0E068B0F1E06F1FD0E068B0F102
:101CB000006F1BD0E068B0F1106F17D0E068B0F192
:101CC000206F13D0E068B0F1306F0FD0E068B0F152
:101CD000406F0BD0E068B0F1506F07D0E068B0F112
:101CE000606F03D0E068B0F1706F00D103E0EE21C7
:101CF00020480AF0BDFD206918B12069B0F5006FD9
:101D000000D103E0EF211B480AF0B2FD207D01283D
:101D100003DB207D102800DC03E0F02115480AF0E9
:101D2000A7FD6E68144806402179206840EA01202A
:101D300006436E60AE6811480640D4E903100843BC
:101D4000A1680843617940EA41000643AE60EE6A4B
:101D500026F47006207D401EC0B2074346EA0756AF
:101D6000EE62BDE8F081000000200140002101404A
:101D700000220140C0FE0408FFFEFFFCFDF7FFC08B
:101D80002DE9F04706460C46174698460025A94619
:101D90006148864205D06148864202D0604886424A
:101DA00000D104E04FF432715E480AF061FD1CB3CB
:101DB000012C21D0022C1FD0032C1DD0042C1BD0B1
:101DC000052C19D0062C17D0072C15D0082C13D0B1
:101DD000092C11D00A2C0FD00B2C0DD00C2C0BD0B1
:101DE0000D2C09D00E2C07D00F2C05D0102C03D0B1
:101DF000112C01D0122C00D104E040F2C921494835
:101E00000AF036FD012F02DB102F00DC04E040F267
:101E1000CA2144480AF02CFDB8F1000F14D0B8F1E3
:101E2000010F11D0B8F1020F0ED0B8F1030F0BD093
:101E3000B8F1040F08D0B8F1050F05D0B8F1060FBE
:101E400002D0B8F1070F00D104E040F2CB213548B1
:101E50000AF00EFD092C13DDF568A4F10A0000EB71
:101E60004001072000FA01F925EA0905A4F10A005A
:101E700000EB400008FA00F945EA0905F5600EE0BC
:101E8000356904EB4401072000FA01F925EA090548
:101E900004EB440008FA00F945EA09053561072F0B
:101EA00011DA756B781E00EB80011F2000FA01F932
:101EB00025EA0905781E00EB800004FA00F945EADE
:101EC0000905756326E00D2F11DA356BF81F00EB5D
:101ED00080011F2000FA01F925EA0905F81F00EB2F
:101EE000800004FA00F945EA0905356312E0F56A55
:101EF000A7F10D0000EB80011F2000FA01F925EA8F
:101F00000905A7F10D0000EB800004FA00F945EA8D
:101F10000905F562BDE8F08700200140002101407D
:101F200000220140C0FE040810B50446094884425E
:101F300005D00948844202D00848844200D104E018
:101F400040F23F3106480AF093FCA06840F0804020
:101F5000A06010BD0020014000210140002201408E
:101F6000C0FE040800BFFEE770B500254FF48034C2
:101F700000E0641E24B1802005F08AF80028F8D023
:101F800014B90325284670BD40F2FF5004F0A4FFA9
:101F90002846F8E72DE9F04106460027484805683D
:101FA00001E04748056805F045000028F9D005F034
:101FB000040030B10327042004F08EFF3846BDE84A
:101FC000F08105F0010028B10127012004F084FF11
:101FD0003846F4E705F056F8B04202D010273846EC
:101FE000EDE740F2FF5004F077FF002005F004F920
:101FF00004463448204008B93846E0E704F0004081
:1020000008B11C20DBE704F0804008B10920D6E7C6
:1020100004F0005008B10A20D1E704F0805008B164
:102020000B20CCE704F0006008B10C20C7E704F0F7
:10203000806008B10D20C2E704F0807008B10E2066
:10204000BDE704F4000008B10F20B8E704F48000F5
:1020500008B11020B3E704F4001008B11120AEE776
:1020600004F4801008B11220A9E704F4002008B19C
:102070001320A4E704F4802008B114209FE704F49F
:10208000003008B115209AE704F4803008B116201A
:1020900095E704F4004008B1172090E704F480406D
:1020A00008B118208BE704F4005008B1192086E726
:1020B00004F0080008B11A2081E738467FE70000E5
:1020C000342C014008E0FFFD70B50025104804687D
:1020D00001E00F48046804F045000028F9D004F03E
:1020E000040028B10325042004F0F6FE284670BD44
:1020F00004F0010028B10125012004F0EDFE28467E
:10210000F5E740F2FF5004F0E7FE2846EFE7000055
:10211000342C014070B500250B48046801E00A48E2
:10212000046804F045000028F9D004F0040028B148
:102130000325042004F0D0FE284670BD40F2FF5075
:1021400004F0CAFE2846F8E7342C01402DE9F0419E
:1021500006460F464FF000082248056801E0214876
:10216000056805F045000028F9D005F0040038B1F5
:102170004FF00308042004F0AFFE4046BDE8F081B4
:1021800005F0010030B14FF00108012004F0A4FE79
:102190004046F3E704F076FFB04203D04FF010085A
:1021A0004046EBE740F2FF5004F096FE002005F0B9
:1021B00023F8044604F4604018B9200C38804046E7
:1021C000DCE704F4005008B11320D7E704F48040A2
:1021D00008B11020D2E704F4004008B10F20CDE789
:1021E0004046CBE7342C014070B500264FF48035D3
:1021F0000F48046802E06D1E0D48046804F04500B5
:1022000008B9002DF7D115B104F0040028B1032658
:10221000042004F061FE304670BD04F0400028B197
:102220000026402004F058FE3046F5E73046F3E73C
:10223000342C014038B5044620694068009000986D
:1022400020F00200801C009000992069416003206A
:1022500008F058FA38BD70B506460C4604F0800008
:10226000802808D104F07F0000EB800106F58E7015
:1022700000EBC10507E004F07F0000EB800106F5EC
:102280005D7000EBC10504F07F00287004F0800051
:10229000C00968702946304608F0A8FD002070BDCE
:1022A00070B506460C4604F08000802808D104F082
:1022B0007F0000EB800106F58E7000EBC10505E0A4
:1022C00004EB840106F55D7000EBC1050020A870E9
:1022D00004F07F002870C4F3C010687029463046AF
:1022E00008F05CFD002070BD70B505460C4604F09A
:1022F0008000802805D104F07F01284608F07CFF8B
:1023000002E0284608F052FF002070BD2DE9F041A0
:1023100006460D4690461F4605F08000802808D1ED
:1023200005F07F0000EB800106F58E7000EBC10424
:1023300007E005F07F0000EB800106F55D7000EB23
:10234000C10405F07F00207005F08000C0096070B6
:10235000C4F80880E770607808B12078E080022F28
:1023600001D1002020712146304608F0CBFC00202E
:10237000BDE8F0812DE9F04105460E461746984626
:1023800006F07F0000EB800105F55D7000EBC104F5
:10239000E760C4F814800020A061607006F07F0040
:1023A0002070E878012800D12761207820B92146E3
:1023B000284608F0CBFB03E02146284608F077FDCD
:1023C0000020BDE8F08108B500220092009A61F378
:1023D0000A12009202691268009B1A4303691A608C
:1023E00008BD70B506460C4604F08000802808D170
:1023F00004F07F0000EB800106F58E7000EBC10554
:1024000005E004EB840106F55D7000EBC1050120D9
:10241000A87004F07F002870C4F3C01068702946CB
:10242000304608F012FD002070BD2DE9F04107464E
:102430000D461646984605F07F0000EB800107F533
:102440008E7000EBC1040120607005F07F002070E9
:10245000E66026610020A061C4F81480207820B9CD
:102460002146384608F072FB03E02146384608F062
:102470001EFD0020BDE8F0811CB50446204608F092
:1024800030FBE068C0680090204608F0DFFE0328BB
:102490000BD10020A0704FF40070A080009820F4B1
:1024A000705000F51050009009E00120A07040200D
:1024B000A080009820F4705000F5A0500090009883
:1024C000E168C86000200190019820F4005000F5F8
:1024D000005001900198E168486101201CBD000096
:1024E000F8B50546002400200090284608F0EDFECF
:1024F000064690E006F0010000287DD0E1B22846B3
:1025000000F018FB0090009800F0010030B30120AB
:1025100000FA04F72869406BB84329694863002032
:102520000090009820F00100401C009005F1180078
:1025300050F8240000998160E1B23948006842688F
:1025400028469047E878012808D13CB940F211109C
:10255000405D042802D1284608F0A3FB0098C0F390
:10256000C00060B100200090009820F00800083002
:10257000009005F1180050F824000099816000983F
:10258000C0F3001060B100200090009820F010000F
:102590001030009005F1180050F824000099816077
:1025A0000098C0F3801060B100200090009820F0E7
:1025B00040004030009005F1180050F824000099C8
:1025C00081600098C0F3400060B100200090009846
:1025D00020F00200801C009005F1180050F8240043
:1025E000009981600098C0F3C01028B121462846A8
:1025F00000F0CAFA002000E00BE00090009820F004
:1026000080008030009005F1180050F824000099F7
:102610008160641C7608002E7FF46CAF0120F8BD49
:10262000CC0300207CB50446002500200190204604
:1026300008F053FE06466FE006F00100002869D05E
:10264000E9B2204608F051FE0190019800F0010027
:10265000C8B300200190019820F00100401C0190B7
:1026600004F1540050F8250001998160E0780128B8
:1026700017D104F1540050F825000069009005EBD3
:10268000850104F55D7000EBC10080680099C1F31D
:102690001201411A05EB850204F55D7000EBC200E2
:1026A0008161E9B21E480068026820469047E078E0
:1026B000012808D13DB940F21110005D052802D172
:1026C000204608F0EEFA0198C0F3400060B1002007
:1026D0000190019820F00200801C019004F1540048
:1026E00050F82500019981600198C0F3C00088B1BD
:1026F0000B480068816820468847002001900198B7
:1027000020F008000830019004F1540050F8250032
:10271000019981606D1C7608002E8DD101207CBD51
:10272000CC0300203EB50446A07A70B1D4F80C0169
:102730000090009820F002000090009820F0010026
:1027400000900099D4F80C010160002001900198DC
:1027500020F00100401C01902069406801998843E5
:102760002169486008480068816920468847002040
:102770000290029820F0004000F100400290029880
:10278000E168486101203EBDCC0300207CB50446D1
:1027900000200190019820F0100010300190E068B6
:1027A000806901998843E1688861E068006A009067
:1027B000009800F00F0000EB800104F55D7000EB65
:1027C000C1050098C0F3434007282DD2DFE800F090
:1027D0002C04051D1E2C1F0027E00098C0F30A10D2
:1027E00090B10098C0F30A122046E96808F087FD0E
:1027F000E8680099C1F30A110844E860A8690099E3
:10280000C1F30A110844A8610FE00EE00DE00822B0
:1028100004F2CC51204608F072FDA8690099C1F37A
:102820000A110844A86100E000BF00BFE0688069A9
:1028300001990843E168886101207CBD38B50446F0
:1028400008480068C168204688470020009000982A
:1028500020F00800083000900098E16848610120ED
:1028600038BD0000CC0300201FB5044600200090B6
:102870004FF48970005D009023480068416920464C
:10288000884720698068019000200390039820F415
:10289000006000F5006003900398E1684861A07A49
:1028A00070B3019800F0010050B340F21510005DC4
:1028B000012825D19DF80000032821D10020029095
:1028C000029820F00100401C0290D4F80C0100682E
:1028D00002990843D4F80C110860029820F0020015
:1028E000801C0290D4F80C01006802990843D4F8C7
:1028F0000C1108600548006840F0060003490860B4
:10290000012004B010BD0000CC03002010ED00E059
:1029100030B587B0044600200290069005900490E0
:1029200003900190029820F00100401C0290206961
:10293000406802998843216948600021204608F0D8
:102940005BFC00250BE0FF2104F1180050F8250086
:10295000816004F1540050F8250081606D1C60789E
:10296000A842F0D84FF0FF312069816106986FF3DB
:102970000F00401C0690069880B200F5803006904B
:1029800006992069C161059820F00800083005907B
:10299000059820F00100401C0590059820F00200E9
:1029A000801C0590059920694161049820F0010080
:1029B000401C0490049820F008000830049004980B
:1029C00020F00200801C04900499206901612069B4
:1029D00000680390039820F4FE6003900399206937
:1029E0000160204608F05DF900200190019820F474
:1029F000805000F5805001900198E16848610448DA
:102A00000068016920468847012007B030BD0000FA
:102A1000CC0300202DE9F04106460F4639463046EA
:102A200008F082FC01214FF4897081550021801C3F
:102A30008155002511E005EB850106F58E7000EB50
:102A4000C104012060702570E5800020E070402006
:102A5000A0600020E06060616D1C7078A842EAD838
:102A6000002510E005EB850106F55D7000EBC10463
:102A7000002060702570E580E0704020A06000209C
:102A8000E06060616D1C7078A842EBD8304608F0B9
:102A900017F8304607F04AFE0021304608F0ACFC3B
:102AA000304607F0D0FE304608F06EFBBDE8F081FE
:102AB00038B504460020009007480068C1692046E8
:102AC0008847009820F4801000F58010009000984E
:102AD000E1684861012038BDCC03002038B50446C8
:102AE0000020009007480068016A20468847009847
:102AF00020F4001000F5001000900098E168486193
:102B0000012038BDCC03002038B50446E068406899
:102B100000900098C0F3800020B105480068816AE9
:102B2000204688470098E1684860012038BD0000D1
:102B3000CC03002030B5024615692B6915696C6B12
:102B400024FA01F505F0010543EAC51302F1180561
:102B500055F82150AD6805EA030030BD38B504468C
:102B600008480068416A2046884700200090009885
:102B700020F0804000F1804000900098E1684861BA
:102B8000012038BDCC0300202DE9F84307460E464E
:102B900000250020009006EB860107F58E7000EB03
:102BA000C104D4E90501451AA068A84200D2A5686D
:102BB000E81C4FEA900807F1180050F826008069D9
:102BC00000901BE0D4E90501451AA068A84200D294
:102BD000A568E81C4FEA9008ABB2F2B23846E1684B
:102BE00008F031FCE0682844E060A0692844A06156
:102BF00007F1180050F8260080690090009880B214
:102C0000404506D9D4E90510884202D260690028FF
:102C1000D8D10120BDE8F88310B517F045FF084969
:102C2000084800F0F5FB012806D10549054800F0E9
:102C3000A5F805480068804717F04EFF10BD00005A
:102C40000080001858600240E000002010B517F026
:102C50002BFF0849084800F0DBFB012806D1054995
:102C6000054800F08BF805480068804717F034FFEE
:102C700010BD00002080002070600240DC000020B9
:102C800010B517F011FF05F053FA17F025FF10BD2E
:102C900070B504460D46344884423AD03248183064
:102CA000844236D030483030844232D02E484830CA
:102CB00084422ED02C48603084422AD02A48783072
:102CC000844226D028489030844222D02648A8301A
:102CD00084421ED0254884421BD0244818308442A8
:102CE00017D022483030844213D0204848308442E4
:102CF0000FD01E48603084420BD01C48783084428C
:102D000007D01A489030844203D01848A830844233
:102D100000D104E04FF48561154809F0A9FD05F0E4
:102D20004050B0F1405F07D005F0405020B111484D
:102D3000284008B905B104E040F229410C4809F0E7
:102D400097FD0A48844202D2074E103E01E0074E2A
:102D5000103E05F0005018B107482840F06002E02E
:102D600005482840B06070BD106002401064024009
:102D70000CFF040882F082C07D0F7D0F70B5044601
:102D80000D46344884423AD032481830844236D016
:102D900030483030844232D02E48483084422ED0E1
:102DA0002C48603084422AD02A487830844226D089
:102DB00028489030844222D02648A83084421ED031
:102DC000254884421BD024481830844217D022481A
:102DD0003030844213D02048483084420FD01E48FF
:102DE000603084420BD01C487830844207D01A48A7
:102DF0009030844203D01848A830844200D104E0C7
:102E000040F2DD41154809F033FD05F04050B0F1C6
:102E1000405F07D005F0405020B11DB11048284058
:102E200000B904E040F2DE410C4809F021FD0A48F7
:102E3000844202D2074E103E01E0074E103E05F0DC
:102E4000005018B107482840F06002E005482840CB
:102E5000B06070BD10600240106402400CFF0408B6
:102E6000820082407D0F7D0F70B504460D462C48D0
:102E700084423AD02A481830844236D0284830302C
:102E8000844232D02648483084422ED024486030D4
:102E900084422AD022487830844226D0204890307C
:102EA000844222D01E48A83084421ED01D4884424D
:102EB0001BD01C481830844217D01A483030844246
:102EC00013D01848483084420FD0164860308442EE
:102ED0000BD014487830844207D012489030844296
:102EE00003D01048A830844200D104E040F2DF1142
:102EF0000D4809F0BDFC0DB1012D00D104E04FF4E7
:102F0000F071094809F0B4FC25B1206840F00100D7
:102F1000206003E0206820F00100206070BD000008
:102F200010600240106402400CFF040810B5044613
:102F3000724884423AD071481830844236D06F4883
:102F40003030844232D06D48483084422ED06B48B5
:102F5000603084422AD069487830844226D067485D
:102F60009030844222D06548A83084421ED0644804
:102F700084421BD062481830844217D060483030F9
:102F8000844213D05E48483084420FD05C486030A1
:102F900084420BD05A487830844207D05848903049
:102FA000844203D05648A830844200D103E0C521B2
:102FB000544809F05DFC206820F0010020600020EA
:102FC00020606060A060E0602061212060614B486B
:102FD000844204D13D204949103988608CE047483B
:102FE0001830844205D14FF4746044491039886028
:102FF00082E042483030844205D14FF474103F499A
:103000001039886078E03D484830844205D14FF05F
:1030100074603A49103988606EE038486030844204
:1030200004D1394835491039C86065E033487830F3
:10303000844204D1354831491039C8605CE02F48DA
:103040009030844204D132482C491039C86053E092
:103050002A48A830844205D14FF03D502749103905
:10306000C86049E02648844204D13D2024490839FB
:10307000086041E022481830844205D14FF4746062
:103080001F490839086037E01D483030844205D1B7
:103090004FF474101A49083908602DE01848483078
:1030A000844205D14FF0746015490839086023E067
:1030B00013486030844204D113481149091F086045
:1030C0001AE00F487830844204D110480C49091F97
:1030D000086011E00A489030844204D10C48084945
:1030E000091F086008E00648A830844204D14FF068
:1030F0003D500349091F086010BD000010600240E8
:10310000106402400CFF04083D000020400F002026
:1031100000003D2070B504460D462C4884423AD04C
:103120002A481830844236D028483030844232D081
:103130002648483084422ED02448603084422AD029
:1031400022487830844226D020489030844222D0D1
:103150001E48A83084421ED01D4884421BD01C4803
:103160001830844217D01A483030844213D018489F
:10317000483084420FD01648603084420BD0144847
:103180007830844207D012489030844203D01048EF
:10319000A830844200D104E040F2F6210D4809F045
:1031A00067FB0DB1012D00D104E040F2F721094881
:1031B00009F05EFB25B1206840F48020206003E028
:1031C000206820F48020206070BD00001060024064
:1031D000106402400CFF040870B504460E46154604
:1031E0002C4884423AD02B481830844236D02948A3
:1031F0003030844232D02748483084422ED025488F
:10320000603084422AD023487830844226D0214836
:103210009030844222D01F48A83084421ED01E48DD
:1032200084421BD01C481830844217D01A483030D2
:10323000844213D01848483084420FD0164860307A
:1032400084420BD014487830844207D01248903022
:10325000844203D01048A830844200D104E04FF4E7
:1032600036710E4809F004FB15B1B5F5002F00D1F9
:1032700004E040F2D921094809F0FAFA25B12068A2
:1032800040F40020206003E0206820F4002020604B
:10329000266170BD10600240106402400CFF0408FB
:1032A00070B504460D462C4884423AD02A4818305E
:1032B000844236D028483030844232D026484830C4
:1032C00084422ED02448603084422AD0224878306C
:1032D000844226D020489030844222D01E48A83014
:1032E00084421ED01D4884421BD01C4818308442A2
:1032F00017D01A483030844213D0184848308442DE
:103300000FD01648603084420BD014487830844285
:1033100007D012489030844203D01048A83084422D
:1033200000D104E040F227210D4809F0A1FA0DB1C7
:10333000202D00D104E04FF40A71094809F098FAF1
:1033400025B1206840F02000206003E0206820F0D4
:103350002000206070BD0000106002401064024038
:103360000CFF040870B504460025264884423AD074
:1033700024481830844236D022483030844232D03B
:103380002048483084422ED01E48603084422AD0E3
:103390001C487830844226D01A489030844222D08B
:1033A0001848A83084421ED0174884421BD01648C3
:1033B0001830844217D014483030844213D0124859
:1033C000483084420FD01048603084420BD00E4801
:1033D0007830844207D00C489030844203D00A48A9
:1033E000A830844200D104E04FF46A71074809F024
:1033F0003FFA206800F0010008B1012500E0002537
:10340000284670BD10600240106402400CFF0408A2
:103410002DE9F04705460C464FF000080027B94655
:10342000784885423AD077481830854236D075487A
:103430003030854232D07348483085422ED07148B2
:10344000603085422AD06F487830854226D06D485A
:103450009030854222D06B48A83085421ED06A4801
:1034600085421BD068481830854217D066483030F6
:10347000854213D06448483085420FD0624860309E
:1034800085420BD060487830854207D05E48903046
:10349000854203D05C48A830854200D104E040F268
:1034A0008D415A4809F0E4F95948844278D0594886
:1034B000844275D05848844272D0584884426FD0B4
:1034C000574884426CD05748844269D05648844259
:1034D00066D05648844263D05048FC3084425FD066
:1034E0004F483F3084425BD05148844258D05148C5
:1034F000844255D05048844252D0504884424FD0E4
:103500004F4884424CD04F48844249D04E48844270
:1035100046D04E48844243D04D48844240D04D4826
:1035200084423DD04C4884423AD04C48844237D003
:103530004B48844234D04B48844231D04A4884427C
:103540002ED04A4884422BD04948844228D049484A
:10355000844225D04348FC30844221D042483F3049
:1035600084421DD0444884421AD04448844217D033
:103570004348844214D04348844211D04248844294
:103580000ED0424884420BD04148844208D0414882
:10359000844205D04048844202D04048844200D151
:1035A00004E040F28E41194809F062F9164885425C
:1035B00002D2144E103E01E0134E103E3848204017
:1035C00030B11E2000EAD427286800EA070902E08B
:1035D000686900F0800904F0005008B1776800E0E5
:1035E00037683048074007EA040028B1B9F1000FF6
:1035F00002D04FF0010801E04FF000084046BDE85E
:10360000F087000010600240106402400CFF0408C4
:10361000208000101040001008200010041000103E
:1036200001000090008800100044001000220010EB
:10363000008020100040101000200810001004101E
:1036400000000190008000180040001400200012CB
:103650000010001100004090208000201040002049
:103660000820002004100020010000A00088002095
:103670000044002000220020008020200040102074
:103680000020082000100420000001A00080002875
:10369000004000240020002200100021000040A073
:1036A0003C0F3C0F7D0F7D0F70B504460D4616464E
:1036B000394884423AD038481830844236D03648A7
:1036C0003030844232D03448483084422ED03248A0
:1036D000603084422AD030487830844226D02E4848
:1036E0009030844222D02C48A83084421ED02B48EF
:1036F00084421BD029481830844217D027483030E4
:10370000844213D02548483084420FD0234860308B
:1037100084420BD021487830844207D01F48903033
:10372000844203D01D48A830844200D104E040F216
:1037300055411B4809F09CF825F09E0008B905B1D9
:1037400004E040F25641164809F092F80EB1012EFD
:1037500000D104E040F25741114809F089F805F022
:10376000800048B126B1606940F08000606103E0EC
:10377000606920F080006061802D0BD02EB1206840
:1037800005F01E010843206004E0206805F01E01DA
:103790008843206070BD0000106002401064024049
:1037A0000CFF040870B505460C460026A248854269
:1037B0003AD0A1481830854236D09F4830308542F3
:1037C00032D09D48483085422ED09B48603085429B
:1037D0002AD099487830854226D097489030854243
:1037E00022D09548A83085421ED0944885421BD0EF
:1037F00092481830854217D090483030854213D017
:103800008E48483085420FD08C48603085420BD0BE
:103810008A487830854207D088489030854203D066
:103820008648A830854200D104E04FF4A171844855
:1038300009F01EF82068D8B12068B0F1007F17D0D9
:103840002068B0F1806F13D02068B0F1C06F0FD046
:103850002068B0F1006F0BD02068B0F1206F07D066
:103860002068B0F1406F03D02068B0F1606F00D1E4
:1038700004E040F24311724808F0FAFFE06828B112
:10388000E068402802D0E068802800D104E04FF4CE
:10389000A2716B4808F0ECFF206920B12069B0F5F7
:1038A000803F00D204E040F24511654808F0E0FF97
:1038B0006069B0F5007F01D0606900B904E04FF4A1
:1038C000A3715F4808F0D4FFA069B0F5806F01D004
:1038D000A06900B904E040F24711594808F0C8FF58
:1038E000E06938B1E069B0F5006F03D0E069B0F588
:1038F000805F00D104E04FF4A471514808F0B8FF94
:10390000206A38B1206AB0F5005F03D0206AB0F5B4
:10391000804F00D104E040F24911494808F0A8FF67
:10392000606A18B1606AB0F5807F00D104E04FF49E
:10393000A571434808F09CFFA06A58B1A06AB0F591
:10394000803F07D0A06AB0F5003F03D0A06AB0F571
:10395000403F00D104E040F24B11394808F088FFA5
:10396000E06A10B1E06A042800D104E04FF4A671C7
:10397000334808F07DFF206B40B1206B012805D053
:10398000206B022802D0206B032800D104E040F213
:103990004D112B4808F06CFF606B58B1606BB0F5AF
:1039A000000F07D0606BB0F1807F03D0606BB0F187
:1039B000C07F00D104E04FF4A771214808F058FF00
:1039C000A06B58B1A06BB0F5001F07D0A06BB0F58D
:1039D000800F03D0A06BB0F5C00F00D104E040F21F
:1039E0004F11174808F044FF2E6816480640E1685A
:1039F0002068084361690843A1690843E1690843F5
:103A0000216A0843616A0843A16A0843616B08435D
:103A1000A16B084306432E606E6926F00706D4E9C1
:103A20000B01084306436E61206968606068A86006
:103A3000A068E86070BD00001060024010640240A1
:103A40000CFF04083F801CF010B511F0FFFD0120B1
:103A500000F002F810BD000010B50446E00DC005EE
:103A600008B904B104E040F21D11034808F000FF5A
:103A70000248046010BD000058FF0408143C0140D7
:103A80002DE9FC4107460D46002600240020009049
:103A9000019008205B490860102048604020886041
:103AA0000020C8604FF480600861084603F070FC95
:103AB0001020FEF76FFA044614B12046BDE8FC81E1
:103AC0005148008800044F49086037204860402072
:103AD00088600020C8604FF480600861084603F0E9
:103AE00057FC3720FEF756FA04460CB12046E5E7AE
:103AF0004FF0FF304549086008204860302088605A
:103B00000220C8600020086101204861084603F0D7
:103B100033FA00203B490860332048604020886029
:103B20000020C8604FF480600861084603F030FC54
:103B30003320FEF72FFA04460CB12046BEE709E019
:103B40004FF4001003F0A4FA20B103F01BFC4DF871
:103B50002600761C2E48006840F22A6108400028A2
:103B6000EED0082003F094FA28B1082003F0B4F94D
:103B700004242046A2E7022003F08AFA28B102209A
:103B800003F0AAF90224204698E7202003F080FAE7
:103B900028B1202003F0A0F9062420468EE74FF438
:103BA000007003F075FA30B14FF4007003F094F92F
:103BB0000724204682E740F2FF5003F08DF9009879
:103BC0000006009901F47F4140EA0120009901F4C8
:103BD0007F0140EA1120009940EA11606860019875
:103BE0000006019901F47F4140EA0120019901F4A6
:103BF0007F0140EA1120019940EA116028602046C7
:103C00005CE70000E01F0020E8000020F41F002017
:103C1000342C01401CB502208DF8040000208DF8E2
:103C2000060001208DF8070000208DF805004FF4F4
:103C3000C060009069460F4800F01EF80722092175
:103C40000C4800F0D9F807220A210A4800F0D4F8FD
:103C50000C2000906946074800F00EF80722022168
:103C6000044800F0C9F807220321024800F0C4F814
:103C70001CBD0000000002402DE9F04104460D4645
:103C800000260027B0465248844217D0514884424B
:103C900014D05148844211D0504884420ED050482C
:103CA00084420BD04F48844208D04F48844205D00C
:103CB0004E48844202D04E48844200D103E0BB21EA
:103CC0004C4808F0D5FD002010B9286800B103E089
:103CD000BC21484808F0CCFD287940B1287901285A
:103CE00005D02879022802D02879032800D103E0E2
:103CF000BD21404808F0BCFDE87928B1E8790128E9
:103D000002D0E879022800D103E0BE21394808F04A
:103D1000AFFD002657E0012000FA06F7286800EA08
:103D20000708B8454ED120687200032191408843AE
:103D30002060287971008840216808432060287934
:103D4000012802D02879022830D1687940B16879F9
:103D5000012805D06879022802D06879032800D1AB
:103D600003E0D021234808F083FDA06872000321FE
:103D700091408843A060687971008840A168084339
:103D8000A060A87910B1A879012800D103E0D7215B
:103D9000184808F06DFD61680120B0408143616002
:103DA0006068A979B14089B208436060E068720038
:103DB000032191408843E060E87971008840E16820
:103DC0000843E060761C102EA5D3BDE8F08100000A
:103DD000000002400004024000080240000C0240C3
:103DE000001002400014024000180240001C024073
:103DF00000200240A4FF04082DE9F04106460D46CC
:103E000014460027B8465148864217D0504886428B
:103E100014D05048864211D04F4886420ED04F48A9
:103E200086420BD04E48864208D04E48864205D086
:103E30004D48864202D04D48864200D104E040F20F
:103E400017214B4808F014FDEDB1012D1BD0022DB8
:103E500019D0032D17D0042D15D0052D13D0062D04
:103E600011D0072D0FD0082D0DD0092D0BD00A2D04
:103E700009D00B2D07D00C2D05D00D2D03D00E2D04
:103E800001D00F2D00D104E04FF40671384808F03E
:103E9000EFFC9CB3092C31D084B37CB374B36CB306
:103EA000012C2BD02AD0022C28D027D026D0032CAE
:103EB00024D0042C22D021D020D0052C1ED01DD0FF
:103EC000092C1BD0062C19D0092C17D0072C15D083
:103ED00014D013D0082C11D010D00FD0092C0DD035
:103EE0000CD00A2C0AD009D00B2C07D00C2C05D0F2
:103EF00004D003D00D2C01D00F2C00D104E040F2EF
:103F000019211B4808F0B4FC6807C00E04FA00F73A
:103F1000E91006F1200050F821006907CA0E0F21B0
:103F200091408843EA1006F1200141F82200E9108F
:103F300006F1200050F8210040EA0708E91006F1D8
:103F4000200040F82180BDE8F08100000000024020
:103F50000004024000080240000C02400010024031
:103F60000014024000180240001C024000200240E1
:103F7000A4FF040870B505460C4600262B48854270
:103F800017D02B48854214D02A48854211D02A48A0
:103F900085420ED0294885420BD02948854208D059
:103FA0002848854205D02848854202D027488542C6
:103FB00000D104E04FF49871254808F059FC012C19
:103FC00025D0022C23D0042C21D0082C1FD0102C5B
:103FD0001DD0202C1BD0402C19D0802C17D0B4F52C
:103FE000807F14D0B4F5007F11D0B4F5806F0ED06F
:103FF000B4F5006F0BD0B4F5805F08D0B4F5005F66
:1040000005D0B4F5804F02D0B4F5004F00D104E0E4
:1040100040F231110E4808F02BFC2869204008B10D
:10402000012600E00026304670BD0000000002407E
:104030000004024000080240000C02400010024050
:104040000014024000180240001C02400020024000
:10405000A4FF040870B504460D461348844208D0F6
:104060001248844205D01248844202D0B4F1402F55
:1040700000D104E040F21A210E4808F0F9FB0DB11E
:10408000012D00D104E040F21B210A4808F0F0FBAA
:1040900025B1A08B40F48060A08304E0A08B4FF694
:1040A000FF310840A08370BD00380040003C004054
:1040B00000340040200105082DE9F04105460C467A
:1040C000002600273A48854202D0B5F1402F00D1A2
:1040D00004E040F2C121374808F0CAFB208858B1FB
:1040E0002088B0F5807F07D02088B0F5007F03D00E
:1040F0002088B0F5407F00D104E040F2C2212D4875
:1041000008F0B6FB608858B16088102808D0608835
:10411000202805D06088302802D06088B02800D1DF
:1041200004E040F2C321234808F0A2FBA08840B17C
:10413000A088012805D0A088032802D0A0880528DF
:1041400000D104E04FF431711A4808F091FBA089C6
:1041500010B1A089082800D104E040F2C52115481B
:1041600008F086FBA88B4FF240010840A88302208C
:104170002884AE8B2088B0F5007F01D0208810B94C
:104180004FF4807708E02088B0F5407F03D0208886
:10419000B0F5807F00D10027A088A18908436188FD
:1041A0000843384340F400600643AE83BDE8F08125
:1041B00000340040200105082DE9FE4F05460C465D
:1041C0004FF0000902274FF000084FF0010B0026C6
:1041D000B24600200290019000907648854202D0BD
:1041E0007548854200D104E04FF4A571734808F08A
:1041F0003FFB208858B12088B0F5807F07D0208809
:10420000B0F5007F03D02088B0F5407F00D104E0F6
:1042100040F24B11694808F02BFB608858B1608868
:10422000102808D06088202805D06088302802D067
:104230006088B02800D104E04FF4A6715F4808F010
:1042400017FBA08840B1A088012805D0A0880328CA
:1042500002D0A088052800D104E040F24D11574853
:1042600008F006FBE088B0F5007F01D0E08800B9D7
:1042700004E04FF4A771514808F0FAFAA068B0F5CD
:10428000FA5F03D34E49A068884202D9A068022889
:1042900000D104E040F24F11484808F0E9FAA08943
:1042A00010B1A089082800D104E04FF4A871434858
:1042B00008F0DEFAA88B4FF240010840A8830220E4
:1042C0002884B5F81C90A068022803D14FF000089C
:1042D000022754E0A08810B94FF0010B01E04FF025
:1042E000020B3848006800F4000028B13548006827
:1042F00020F400003349086032487C300068C0F385
:10430000881001902F487C300068C0F30270009044
:104310002C48001F006800F03F0002902A490298D4
:10432000B1FBF0F0019948430099B0FBF1FAE08845
:10433000B0F5007F0AD14FEA1A2000EB8000400060
:10434000A168B0FBF1F0401D86B20BE04FEA4B10C4
:10435000BAFBF0F000EB80004000A168B0FBF1F088
:10436000401D86B20A20B6FBF0F606F00108A6EB67
:104370000800C0F34F074FF6FF7000EA0828022F2D
:1043800001DBFF2F02DD02274FF00008E08840EA42
:10439000080038432884A088A1890843618808431D
:1043A0002188084340F4006040EA0909A5F81C9000
:1043B000BDE8FE8F00380040003C004020010508A9
:1043C00000EE02000838024040787D014AF6AA203B
:1043D00001490860704700000030004010B50446F5
:1043E0000D48007B48B90C48806830B10B48007814
:1043F00018B901212046FDF7F4FF81212046FDF781
:10440000F0FF06480078022805D11F23024A012147
:104410002046FDF7AFFF10BDE84C0020E10300206F
:1044200010B504462B4840682B49486029488068ED
:1044300088600121204605F0E2FB1F2810D12548A5
:104440000068264988420BD12248407B012807DCBE
:104450002048807B012803DB1E48807B10280CDD70
:104460001C49487B2022052102F0CAFA02201C497F
:1044700008702046FFF7B2FF2AE01648417B00F1A2
:104480000F02204602F040F8002803DA2046FFF72A
:10449000A5FF1DE013480078022819D011480078C4
:1044A000012815D00F480078032811D00E48008845
:1044B000002806DD0C4802880C49204600F0E0F890
:1044C00006E00948008818B90021204600F0B8F835
:1044D00010BD0000E84C0020084D00205553424319
:1044E000E1030020E0030020DE030020E83C002080
:1044F00070B505460C460C480078022807D181218A
:104500002846FDF76EFF0020074908700BE004F015
:104510008000802807D104480078012803D00121B9
:10452000284600F08DF870BDE103002070B5044608
:104530000D4610480078022804D0032811D0042822
:1045400014D10DE00C48417B00F10F02204601F030
:10455000DBFF002803DA0121204600F071F806E0B5
:1045600000BF0021204600F06BF800E000BF00BF54
:1045700070BD0000E0030020E84C002070B5044648
:104580000D460D48007810B1012812D103E02046F5
:10459000FFF746FF0EE00948417B00F10F0220467D
:1045A00001F0B2FF002803DA0121204600F048F8AC
:1045B00000E000BF00BF70BDE0030020E84C002019
:1045C0000021014A11707047E003002010B5044635
:1045D00000200C4908700C4908700C4800680168FC
:1045E0000020884701212046FDF77EFE81212046DC
:1045F000FDF77AFE1F23064A01212046FDF7BAFE89
:1046000010BD0000E0030020E10300206C01002049
:10461000E84C002010B5044600200649087001202F
:10462000054908701F23054A01212046FDF7A2FE17
:1046300010BD0000E0030020E1030020E84C002052
:1046400070B505460C460A480A49086008460473D6
:104650000020094908700D23064A81212846FDF7EC
:10466000E4FE1F23054A01212846FDF783FE70BDA5
:1046700055534253084D0020E0030020E84C002031
:1046800070B506460D4614460C488068A04202D21A
:104690000A48806800E0204684B209488068001B10
:1046A00007498860002008730420064908702346E3
:1046B0002A4681213046FDF7B8FE70BDE84C002047
:1046C000084D0020E003002000BFFEE7704710B552
:1046D00000214FF0006000F0CFF84FF4A06000F030
:1046E0008BF810BD38B5044620798DF80000032002
:1046F0008DF8010000208DF8020001208DF80300E4
:10470000684600F001F838BD2DE9F0410446002567
:1047100000270F26E07810B1E078012800D103E0EF
:10472000872122A008F0A4F86078102800DA03E0BE
:1047300088211EA008F09CF8A078102800DA03E079
:1047400089211AA008F094F8E07818B32748006887
:1047500000F4E060C0F5E060C0F30725C5F1040097
:10476000C7B22E416078B840C5B2A078304005434A
:104770002807050E1E4821784554207800F01F01B7
:104780000120884021784911890001F1E021C1F818
:10479000000109E0207800F01F0101208840154940
:1047A0002278521141F82200BDE8F0812E2E5C5390
:1047B000544D33325F5354445045524950485F443E
:1047C00052495645525C53544D3332463478785FE3
:1047D0005374645065726970685F4472697665727B
:1047E0005C7372635C6D6973632E63000CED00E0B3
:1047F00000E400E080E100E010B50446B4F5E06FAD
:104800000BD0B4F5C06F08D0B4F5A06F05D0B4F5E7
:10481000806F02D0B4F5407F00D103E0732104A083
:1048200008F026F8124820431249086010BD000025
:104830002E2E5C53544D33325F53544450455249ED
:1048400050485F4452495645525C53544D333246AA
:104850003478785F5374645065726970685F44722D
:10486000697665725C7372635C6D6973632E630055
:104870000000FA050CED00E070B504460D46B4F1F9
:10488000005F02D0B4F1006F00D103E0B12109A0B4
:1048900007F0EEFF1748854200D203E0B22105A0E1
:1048A00007F0E6FF144905EA0100204313490860B8
:1048B00070BD00002E2E5C53544D33325F53544470
:1048C0005045524950485F4452495645525C5354F2
:1048D0004D3332463478785F537464506572697032
:1048E000685F4472697665725C7372635C6D69734C
:1048F000632E6300FFFF0F0080FFFF1F08ED00E045
:1049000000BF0A48006810F8080C0849096811F847
:10491000041C08440549096801F8080C03480068AC
:10492000001F0249086000BF7047000068030020B4
:1049300000BF0A48006850F8080C0849096851F897
:10494000041C08440549096841F8080C034800683C
:10495000001F0249086000BF704700006803002084
:1049600000BF0A48006830F8080C0849096831F8A7
:10497000041C084400B20549096821F8080C0348E2
:104980000068001F0149086000BF704768030020ED
:1049900000BF0A48006810F8080C0849096811F8B7
:1049A000041C08400549096801F8080C0348006820
:1049B000001F0249086000BF704700006803002024
:1049C00000BF0A48006850F8080C0849096851F807
:1049D000041C08400549096841F8080C03480068B0
:1049E000001F0249086000BF7047000068030020F4
:1049F00000BF0A48006830F9080C0849096831F915
:104A0000041C08400549096821F8080C034800689F
:104A1000001F0249086000BF7047000068030020C3
:104A20000448006810F8040CC0430249096801F802
:104A3000040C7047680300200448006850F8040C18
:104A4000C0430249096841F8040C7047680300201C
:104A50000448006830F9040CC0430249096821F891
:104A6000040C70476803002010B5A4B0DF4800684C
:104A700000781390DD480068401CDC490860002085
:104A80001290DB480068001FD949086011E0D8483F
:104A9000006802681398401E1299401A14A941F840
:104AA0002020D3480068001FD14908601298401C9C
:104AB0001290DDE912018842E9D3CD480068006810
:104AC0001190139811286ED2DFE800F0090E141D22
:104AD000293747596E849CB6D2F4F2F1F0000020D9
:104AE00011998847109074E114980F901199884794
:104AF00010906EE115980F9014980E90119A0F99DE
:104B00009047109065E116980F9015980E901498A4
:104B10000D90119BDDE90E129847109059E11798FE
:104B20000F9016980E9015980D9014980C90119C5B
:104B30000DA90EC9A04710904BE118980090179846
:104B40000F9016980E9015980D9014980C90119C3B
:104B50000DA90EC9A04710903BE1DDE91801CDE990
:104B6000000117980F9016980E9015980D901498B4
:104B70000C90119C0DA90EC9A047109029E1DDE908
:104B800019211898CDE90121009017980F901698D7
:104B90000E9015980D9014980C90119C0DA90EC9AB
:104BA000A047109015E111E1DDE9193218991B9821
:104BB000CDE901320091039017980F9016980E904E
:104BC00015980D9014980C90119C0DA90EC9A04732
:104BD0001090FEE0DDE91923DDE91B10CDE901238A
:104BE000CDE903101898009017980F9016980E9022
:104BF00015980D9014980C90119C0DA90EC9A04702
:104C00001090E6E0DDE91A23DDE91C10CDE902236E
:104C1000CDE90410DDE91801CDE9000117980F90E6
:104C200016980E9015980D9014980C90119C0DA943
:104C30000EC9A0471090CCE0DDE91C321B991E98EC
:104C4000CDE9043203910690DDE919211898CDE9E8
:104C50000121009017980F9016980E9015980D90BE
:104C600014980C90119C0DA90EC9A0471090B0E0AB
:104C7000DDE91C23DDE91E10CDE90423CDE9061092
:104C8000DDE9193218991B98CDE9013200910390A2
:104C900017980F9016980E9015980D9014980C90E8
:104CA000119C0DA90EC9A047109092E068E043E066
:104CB00020E0FFE7DDE91E321D992098CDE906329C
:104CC00005910890DDE91923DDE91B01CDE90123F8
:104CD000CDE903011898009017980F9016980E9040
:104CE00015980D9014980C90119C0DA90EC9A04711
:104CF00010906EE0DDE91E13DDE92002CDE9061318
:104D0000CDE90802DDE91A23DDE91C01CDE9022322
:104D1000CDE90401DDE91801CDE9000117980F90F4
:104D200016980E9015980D9014980C90119C0DA942
:104D30000EC9A04710904CE0DDE92031229A1F985F
:104D4000CDE908310A920790DDE91B23DDE91D0159
:104D5000CDE90323CDE90501DDE919211898CDE955
:104D60000121009017980F9016980E9015980D90AD
:104D700014980C90119C0DA90EC9A047109028E022
:104D8000DDE9213220992398CDE9093208910B9071
:104D9000DDE91D321C991F98CDE905320491079079
:104DA000DDE91823DDE91A10CDE90023CDE9021071
:104DB00017980F9016980E9015980D9014980C90C7
:104DC000119C0DA90EC9A047109002E00020109080
:104DD00000BF00BF064910980968086004480068D1
:104DE000001D0349086024B010BD00006C030020C2
:104DF0006803002000BF0A48006810F8080C084942
:104E0000096811F8041C90FBF1F00549096801F8E4
:104E1000080C03480068001F0149086000BF704784
:104E20006803002000BF0A48006850F8080C0849D1
:104E3000096851F8041C90FBF1F00549096841F834
:104E4000080C03480068001F0149086000BF704754
:104E50006803002000BF0B48006830F9080C0949BE
:104E6000096831F9041C90FBF1F000B205490968AA
:104E700021F8080C03480068001F0249086000BFC1
:104E8000704700006803002008480068007808495F
:104E90000968087006480068001D05490860034855
:104EA0000068401C01490860704700006C03002046
:104EB000680300200F48006800780E4909684978A7
:104EC00040EA01200B490968897840EA0140094914
:104ED0000968C97840EA016007490968086006481E
:104EE0000068001D0449086002480068001D01496F
:104EF000086070476C0300206803002010490968AF
:104F000009780F4A1268527841EA02210C4A126865
:104F1000927841EA02410A4A1268D27841EA026074
:104F20000178084A1268117006490968091D054A86
:104F3000116003490968091D014A116070470000AA
:104F40006C030020680300200449096851F8040C30
:104F50000178024A126802F8041C704768030020B6
:104F60001049096809780F4A1268527841EA02210B
:104F70000C4A1268927841EA02410A4A1268D278D1
:104F800041EA0260084A016812681160064909682E
:104F9000091D054A116003490968091D014A11608C
:104FA000704700006C030020680300200449096872
:104FB00051F8040C024A0168126842F8041C704758
:104FC000680300201049096809780F4A126852786E
:104FD00041EA02210C4A1268927841EA02410A4AE7
:104FE0001268D27841EA02600188084A126811808A
:104FF00006490968091D054A116003490968091D28
:10500000014A1160704700006C0300206803002013
:105010000449096851F8040C0188024A126822F810
:10502000041C7047680300200B48006800780A4998
:105030000968497840EA012000B2084909680880F7
:1050400006480068001D0549086003480068801C88
:1050500001490860704700006C03002068030020CD
:1050600000BF0B48006810F8080C0949096811F8DE
:10507000041C90FBF1F201FB12000549096801F8DC
:10508000080C03480068001F0149086000BF704712
:105090006803002000BF0B48006850F8080C09495D
:1050A000096851F8041C90FBF1F201FB120005495C
:1050B000096841F8080C03480068001F01490860AE
:1050C00000BF70476803002000BF0B48006830F93C
:1050D000080C0949096831F9041C90FBF1F201FB45
:1050E00012000549096821F8080C03480068001FF0
:1050F0000149086000BF70476803002000BF0A48EC
:10510000006810F8080C0849096811F8041C10FB25
:1051100001F00549096801F8080C03480068001F00
:105120000149086000BF70476803002000BF0A48BB
:10513000006850F8080C0849096851F8041C4843F5
:105140000549096841F8080C03480068001F024936
:10515000086000BF704700006803002000BF0B48D4
:10516000006830F8080C0949096831F8041C10FB84
:1051700001F000B20549096821F8080C03480068ED
:10518000001F0249086000BF70470000680300204C
:105190007047000000BF0A48006810F8080C084972
:1051A000096811F8041C08430549096801F8080C4E
:1051B00003480068001F0249086000BF70470000F4
:1051C0006803002000BF0A48006850F8080C08492E
:1051D000096851F8041C08430549096841F8080C9E
:1051E00003480068001F0249086000BF70470000C4
:1051F0006803002000BF0A48006830F9080C08491D
:10520000096831F9041C08430549096821F8080CAC
:1052100003480068001F0249086000BF7047000093
:105220006803002002480068001F014908607047B9
:105230006803002000BF0A48006810F8080C0849FD
:10524000096811F8041C88400549096801F8080C30
:1052500003480068001F0249086000BF7047000053
:105260006803002000BF0A48006850F8080C08498D
:10527000096811F8041C88400549096841F8080CC0
:1052800003480068001F0249086000BF7047000023
:105290006803002000BF0A48006830F8080C08497D
:1052A000096811F8041C884000B20549096821F812
:1052B000080C03480068001F0149086000BF7047E0
:1052C0006803002000BF0A48006810F8080C08496D
:1052D000096811F8041C08410549096801F8080C1F
:1052E00003480068001F0249086000BF70470000C3
:1052F0006803002000BF0A48006850F8080C0849FD
:10530000096811F8041C08410549096841F8080CAE
:1053100003480068001F0249086000BF7047000092
:105320006803002000BF0A48006830F9080C0849EB
:10533000096811F8041C08410549096821F8080C9E
:1053400003480068001F0249086000BF7047000062
:10535000680300200748006810F8040C0549096834
:1053600051F8081C087003480068001F01490860D4
:1053700070470000680300200748006850F8040CDC
:105380000549096851F8081C086003480068001FB7
:105390000149086070470000680300200748006862
:1053A00030F8040C0549096851F8081C08800348C6
:1053B0000068001F01490860704700006803002072
:1053C00000BF0A48006810F8080C0849096811F87D
:1053D000041C401A0549096801F8080C03480068D4
:1053E000001F0249086000BF7047000068030020EA
:1053F00000BF0A48006850F8080C0849096851F8CD
:10540000041C401A0549096841F8080C0348006863
:10541000001F0249086000BF7047000068030020B9
:1054200000BF0A48006830F8080C0849096831F8DC
:10543000041C401A00B20549096821F8080C034809
:105440000068001F0149086000BF70476803002022
:1054500000BF0A48006810F8080C0849096811F8EC
:10546000041C48400549096801F8080C0348006815
:10547000001F0249086000BF704700006803002059
:1054800000BF0A48006850F8080C0849096851F83C
:10549000041C48400549096841F8080C03480068A5
:1054A000001F0249086000BF704700006803002029
:1054B00000BF0A48006830F9080C0849096831F94A
:1054C000041C48400549096821F8080C0348006895
:1054D000001F0249086000BF7047000068030020F9
:1054E00010B515F0E1FA034804F0EAFC15F0F4FAFF
:1054F00010BD00009021002010B504460CB1012C15
:1055000000D103E08A21034807F0B2F9024804629F
:1055100010BD0000F0FF040800000E4270B5044604
:105520000D461048204008B904B104E04FF48861EA
:105530000D4807F09DF90DB1012D00D104E040F2B6
:105540004241094807F094F92DB10848006820430A
:105550000649086004E005480068A0430349086064
:1055600070BD000000EE8B813C0005083038024021
:1055700070B504460D4624F0F10008B904B104E00A
:105580004FF48C610C4807F073F90DB1012D00D177
:1055900004E040F26141084807F06AF92DB107487C
:1055A000006820430549086004E004480068A043FF
:1055B0000249086070BD00003C0005083438024014
:1055C00070B504460D461048204008B904B104E007
:1055D00040F2AD410D4807F04BF90DB1012D00D15E
:1055E00004E040F2AE41094807F042F92DB1084805
:1055F000006820430649086004E005480068A043AD
:105600000349086070BD0000003601C93C00050870
:105610004038024070B504460D461048204008B995
:1056200004B104E04FF4AC610D4807F021F90DB16D
:10563000012D00D104E040F26151094807F018F94A
:105640002DB10848006820430649086004E0054879
:105650000068A0430349086070BD0000003601C91E
:105660003C0005082038024070B504460D4610483D
:10567000204008B904B104E040F2D5410D4807F0DC
:10568000F7F80DB1012D00D104E040F2D6410948F0
:1056900007F0EEF82DB1084800682043064908607D
:1056A00004E005480068A0430349086070BD00009D
:1056B000CCA0F8FF3C0005084438024070B5044611
:1056C0000D461048204008B904B104E040F284516E
:1056D0000D4807F0CDF80DB1012D00D104E040F2E6
:1056E0008551094807F0C4F82DB1084800682043E7
:1056F0000649086004E005480068A04303490860C3
:1057000070BD0000CCA6F8FF3C000508243802401C
:1057100010B501210846FFF701FF01211020FFF716
:10572000A3FF01210846FFF7F9FE01214804FFF716
:1057300047FF10BDF0B500210022002402250026FD
:105740000223324F3F6807F00C0121B1042905D034
:10575000082937D105E02E4F076036E02D4F07604E
:1057600033E02A4F3F1F3F68C7F38056274F3F1F44
:105770003F6807F03F036EB1264FB7FBF3F7DFF842
:105780008CC0ACF1040CDCF800C0CCF3881C07FB27
:105790000CF40CE01E4FB7FBF3F7DFF870C0ACF170
:1057A000040CDCF800C0CCF3881C07FB0CF4174F8A
:1057B0003F1F3F68C7F301477F1C7D00B4FBF5F72F
:1057C000076002E0124F076000BF00BF0F4F3F6845
:1057D00007F0F0010909104F7A5C0768D74047606D
:1057E0000A4F3F6807F4E051890A0B4F7A5C47681B
:1057F000D7408760054F3F6807F46041490B064F6B
:105800007A5C4768D740C760F0BD000008380240A6
:105810000024F40040787D01E40100202DE9F041EE
:105820000446002500260027212C17D0312C15D046
:10583000392C13D0412C11D0612C0FD0792C0DD0E4
:105840007A2C0BD07B2C09D07C2C07D07D2C05D05A
:105850007E2C03D07F2C01D03B2C00D104E040F201
:105860009C610F4807F004F86511012D02D10D4825
:10587000066808E0022D03D10A487030066802E08D
:1058800008487430066804F01F050120A840304025
:1058900008B1012700E000273846BDE8F08100008C
:1058A0003C0005080038024010B504461CB1012C2C
:1058B00001D0042C00D104E04FF4B2710B4806F083
:1058C000D7FF00200A4908700870012C02D0042C70
:1058D00008D103E001200649087004E005200449CE
:1058E000087000E000BF00BF10BD00003C000508CC
:1058F0007038024010B504460CB1012C00D104E010
:1059000040F2F711024806F0B3FF0248846610BD6A
:105910003C0005080000474270B505460C46C02D06
:1059200003D3B5F5D87F00D804E04FF4F4710948EB
:1059300006F09EFF022C02D3072C00D804E040F2B0
:10594000E911044806F094FFA80140EA04700249F6
:10595000086070BD3C0005088438024010B504465C
:105960000CB1012C00D104E040F2F731024806F0FE
:105970007FFF0248046010BD3C0005083C0E474212
:1059800070B504460025B4F5807F5CD0B4F5007F87
:1059900059D03C48844256D03B48844253D03B487F
:1059A000844250D03A4884424DD03A4884424AD04A
:1059B0003948844247D03948844244D038488442E8
:1059C00041D0384884423ED0374884423BD03748A3
:1059D000844238D03648844235D03648844232D06A
:1059E000354884422FD0354884422CD034488442F4
:1059F00029D03448844226D03348844223D03348C7
:105A0000844220D0324884421DD0324884421AD089
:105A10003148844217D03148844214D030488442FF
:105A200011D0304884420ED02F4884420BD02F48EA
:105A3000844208D02E48844205D02E48844202D0A9
:105A40002D48844200D104E040F2D9312B4806F0C1
:105A50000FFF04F44070B0F5407F09D12848056875
:105A600025F4F815274904EA010005432448056098
:105A7000234868300068C4F30B01084320496831AB
:105A8000086070BD0003020000030300000304006F
:105A900000030500000306000003070000030800E0
:105AA0000003090000030A0000030B0000030C00C0
:105AB00000030D0000030E0000030F0000031000A0
:105AC0000003110000031200000313000003140080
:105AD0000003150000031600000317000003180060
